:0400000036EF00F0E7
:100008005282F2AC0AEF00F00CEF00F034EF00F08F
:100018009DA811EF00F013EF00F01CEF00F09EA870
:1000280018EF00F01AEF00F01CEF00F034EF00F0CA
:100038009DAA21EF00F023EF00F02CEF00F09EAA1C
:1000480028EF00F02AEF00F02CEF00F034EF00F07A
:10005800A3A431EF00F033EF00F034EF00F0A45028
:080068005292110065EF0BF04C
:1010000000E219A219941922109E11D819D0121CAD
:101010001A141A0C1A041AFC19F419EC19CE19A88E
:101020001400A1EC0CF00009D8B419EF08F01BEF84
:1010300008F058EF08F029EF08F00EEC0DF072EF11
:1010400008F00AEC0DF072EF08F002EC0DF072EF10
:1010500008F013C038F014C039F020EE07F002D8C1
:101060003CEF08F00500FA6EDE50FD6EDE50FE6EBD
:10107000F850FF6EFA5012003A6E3B6A3B50000A7D
:10108000D8B445EF08F025EF08F03A50010AD8B47B
:1010900025EF08F0030AD8B41DEF08F0010AD8B410
:1010A00021EF08F0070AD8B425EF08F025EF08F083
:1010B00024901EC0D9FF1FC0DAFF1E4A1F2ADF502E
:1010C00012EC0DF02006D8A0210620502110D8A443
:1010D0006CEF08F06EEF08F071EF08F0060E72EF9B
:1010E00008F0030E1200500E22EC09F0E806D8B406
:1010F0007CEF08F07EEF08F073EF08F0000E456E0D
:10110000000E446E3F50446E3EC045F0440E2F6EBC
:10111000000E306E000E326E020E316E6BEC0CF073
:10112000000EE5EC0AF031EC0CF0E806D8B49BEFC9
:1011300008F09DEF08F093EF08F0210E436E760E55
:10114000E82EFED7432EFCD700D0500E22EC09F03B
:10115000E806D8B4AEEF08F0B0EF08F0A5EF08F05D
:1011600040C02FF041C030F042C031F0326A6BEC29
:101170000CF0010EE5EC0AF031EC0CF0E806D8B406
:10118000C4EF08F0C6EF08F0BCEF08F0210E436E84
:10119000760EE82EFED7432EFCD700D012001EECB0
:1011A0000DF01EC0D9FF1FC0DAFFDF6E1E4A1F2AD6
:1011B0002006D8A0210620502110D8B4E2EF08F074
:1011C000E4EF08F0E9EF08F016EC0DF0050E21EF62
:1011D00009F02486F4EF08F0F6EC0CF021EF09F0AA
:1011E000FAEC0CF021EF09F00DC038F00EC039F028
:1011F00002D805EF09F00500FA6E0150FD6E0250AD
:10120000FE6EF850FF6EFA5012003A6E3B6A3B5089
:10121000000AD8B40EEF09F0F0EF08F03A50010AD6
:10122000D8B4F0EF08F0030AD8B4ECEF08F0010AE4
:10123000D8B4ECEF08F0070AD8B4F0EF08F0F0EFFC
:1012400008F012002F6E010E306E24B42AEF09F060
:101250002CEF09F066EF09F02FC01DF024922484D2
:1012600024900E0E226E010E1C6EF40E1B6E248650
:10127000480E016E1A0E026E000E0D6E000E0E6EFE
:10128000480E036E1A0E046E000E0F6E000E106EE6
:10129000480E056E1A0E066E000E116E000E126ECE
:1012A000480E076E1A0E086E000E136E000E146EB6
:1012B000440E096E1A0E0A6E000E156E000E166EA2
:1012C00030EC0DF05AEC0CF0000E306E3050120085
:1012D000248678EF09F006EC0DF0A5EF09F01CEC80
:1012E0000DF0030EA5EF09F002EC0DF0A5EF09F0EB
:1012F0000DC038F00EC039F002D889EF09F00500B2
:10130000FA6E0150FD6E0250FE6EF850FF6EFA50FC
:1013100012003A6E3B6A3B50000AD8B492EF09F0D3
:1013200074EF09F03A50010AD8B474EF09F0030AD7
:10133000D8B46BEF09F0010AD8B46BEF09F0070AD3
:10134000D8B46FEF09F074EF09F01200336E2F502C
:101350003010D8B4AEEF09F0B0EF09F0CAEF09F0E1
:101360003350020D010EF324D96E000EF420DA6E14
:101370002FC0DEFF30C0DDFF3350020D0D0EF32411
:10138000D96E000EF420DA6E31C0DEFF32C0DDFF10
:10139000E2EF09F03350020D010EF324D96E000E76
:1013A000F420DA6E480EDE6E1A0EDD6E3350020D3A
:1013B0000D0EF324D96E000EF420DA6E000EDE6EF0
:1013C000000EDD6E1200BCEC0CF0C3EC0CF04FC054
:1013D00046F050C047F051C048F0000E3F6E000E7E
:1013E0003E6E46C040F01DEC0AF0000E3F6E010E4E
:1013F0003E6E47C040F01DEC0AF0000E3F6E020E3C
:101400003E6E48C040F01DEC0AF0000E3F6E000E2C
:101410003E6E460E406E000E416E030E426E73EC41
:1014200008F0460E3E6E000E3F6E030E406E89ECD5
:101430000AF0EDEF09F036EF00F0500E22EC09F063
:10144000E806D8B426EF0AF028EF0AF01DEF0AF0FC
:10145000000E426E000E436E000E446E3F50426E10
:101460003EC043F040C044F0420E2F6E000E306E7E
:10147000000E326E030E316E6BEC0CF0000EE5ECDC
:101480000AF031EC0CF0E806D8B449EF0AF04BEF63
:101490000AF041EF0AF0210E416E760EE82EFED7DB
:1014A000412EFCD700D012002490020E236E61EF73
:1014B0000AF006EC0DF088EF0AF002EC0DF088EF70
:1014C0000AF011C038F012C039F020EE05F002D851
:1014D00074EF0AF00500FA6EDE50FD6EDE50FE6E0F
:1014E000F850FF6EFA5012003A6E3B6A3B50000A09
:1014F000D8B47DEF0AF05DEF0AF03A50020AD8B492
:1015000059EF0AF0010AD8B459EF0AF05DEF0AF07A
:101510001200280E22EC09F0E806D8B492EF0AF087
:1015200094EF0AF089EF0AF03EC02FF03FC030F090
:1015300040C031F0326A6BEC0CF0000EE5EC0AF0C2
:1015400031EC0CF0E806D8B4A8EF0AF0AAEF0AF0E4
:10155000A0EF0AF01A0E426E5E0E416E6E0EE82E7D
:10156000FED7412EFCD7422EFAD700D0120030EC25
:101570000DF024A0BEEF0AF0C0EF0AF0CCEF0AF0A5
:10158000A1EC0CF00009D8B4C8EF0AF0CAEF0AF0D9
:10159000CCEF0AF00F0E226E2250020D010EF32442
:1015A000F66E100EF420F76E02D8E3EF0AF0050095
:1015B000FA6E0900F550FD6E0900F550FE6EF85008
:1015C000FF6EFA501200226E12003C6E010E3D6E4C
:1015D00024B2EDEF0AF0EFEF0AF004EF0BF02482F3
:1015E000000E3D6E3C50D8B4F8EF0AF0FAEF0AF066
:1015F000FEEF0AF0010E226E00EF0BF0020E226EDB
:101600002AEC0DF07CEC0CF03D50120020EE02F0C4
:101610003850D9263950DA22DECF2FF0DDCF30F026
:1016200038C0D9FF39C0DAFFDECF31F0DDCF32F07C
:101630006BEC0CF0000E346E000E356E000E366E44
:10164000000E376E8AEC0CF0020E120020EE02F053
:101650003850D9263950DA22DECF2FF0DDCF30F0E6
:1016600038C0D9FF39C0DAFFDECF31F0DDCF32F03C
:101670006BEC0CF0000E346E000E356E000E366E04
:10168000000E376E8AEC0CF0020E1200080EA76EE8
:10169000900EAB6E240EAC6E080EAF6E020E7D6E19
:1016A000000E2F6E000E306EDDEC0CF0000E2F6E73
:1016B000000E306ED8EC0CF0000E2F6E000E306E67
:1016C000E2EC0CF0000E2E6E1200640EF66E1A0E96
:1016D000F76E000EF86E0900F5CF4FF00900F5CF58
:1016E00050F00900F5CF51F000EE01F02E0EEE6A39
:1016F000E806FDE152905292000EF86E0001E3EF11
:1017000009F038C02FF039C030F0000E326E010EF3
:10171000316E6BEC0CF0000E346E000E356E000E68
:10172000366E000E376E8AEC0CF0040E120038C0D4
:101730002FF039C030F0000E326E020E316E6BECBD
:101740000CF0000E346E000E356E000E366E000E7C
:10175000376E8AEC0CF0020E120038C02FF039C040
:1017600030F0000E326E010E316E6BEC0CF0000E9C
:10177000346E000E356E000E366E000E376E8AEC3B
:101780000CF0020E120038C02FF039C030F0000EFD
:10179000326E020E316E6BEC0CF0000E346E000EE9
:1017A000356E000E366E000E376E8AEC0CF0040EAD
:1017B000120038C02FF039C030F0000E326E020E29
:1017C000316E6BEC0CF0000E346E000E356E000EB8
:1017D000366E000E376E8AEC0CF0020E120038C026
:1017E0002FF039C030F0000E326E010E316E6BEC0E
:1017F0000CF0000E346E000E356E000E366E000ECC
:10180000376E8AEC0CF0020E120038C02FF039C08F
:1018100030F0000E326E010E316E6BEC0CF0000EEB
:10182000346E000E356E000E366E000E376E8AEC8A
:101830000CF0040E120038C02FF039C030F0000E4A
:10184000326E020E316E6BEC0CF0000E346E000E38
:10185000356E000E366E000E376E8AEC0CF0040EFC
:101860001200010E2F6E24B238EF0CF03AEF0CF09C
:1018700044EF0CF024941D6830EC0DF02CEC0DF0CE
:101880002EEC0DF023C02FF02F501200000E896EA9
:10189000000E8A6E000E8B6ECF0E926E9368BF0E96
:1018A000946E1F0E0F015D6F070E5C6F000E5B6F75
:1018B000F18E1200C6BA5FEF0CF061EF0CF06AEF28
:1018C0000CF0000EC76E080EC66E000EC56E310E0F
:1018D000C86EC68A120024A670EF0CF072EF0CF0EE
:1018E0007BEF0CF02FC01EF030C01FF031C020F095
:1018F00032C021F02496120082EF0CF0B4EC0CF010
:10190000B7EC0AF024B287EF0CF089EF0CF07EEF11
:101910000CF0120034C02FF035C030F036C031F07A
:1019200037C032F0000EA6EC09F012002F6E9EA810
:101930009CEF0CF09EEF0CF097EF0CF02FC0ADFF7A
:101940001200C5BCA6EF0CF0A9EF0CF0010EAAEF37
:101950000CF0000E1200600ED36E000ED26E000E60
:101960009B6E000E9A6E12009EA6B9EF0CF0BBEFB4
:101970000CF0B4EF0CF0120046EC0CF0ABEC0CF0F9
:1019800046EC0BF01200FE0E96EC0CF0010E96ECFD
:101990000CF0120024801D501D2412EC0DF0030EDB
:1019A00012002480D8801D3412EC0DF0050E1200B8
:1019B0002FC04BF030C04CF012002FC04DF030C0A3
:1019C0004EF012002FC049F030C04AF012002492AD
:1019D000000E236E0E0E1200249020EC0DF0040E6B
:1019E00012002492000E236E0E0E120019EC0DF060
:1019F000090E120019EC0DF00A0E120016EC0DF093
:101A0000050E120026EC0DF0000E120028EC0DF071
:101A1000010E120028EC0DF0020E120028EC0DF061
:101A2000010E12002F6E2FC0C9FF1200C59AC58883
:101A30001200C58AC58812009E861200C950120085
:101A4000C5861200050E1200010E1200C584120098
:101A5000C5821200C58012009D961200C69A12001F
:071A60009E961200303132A6
:020000040020DA
:08000000FFFFFFFFFFFFFFFF00
:020000040030CA
:0E00000015027F7CFF8991FF0FC00FE00F40BB
:00000001FF
